:020000040000FA
:0600000089EF03F012007D
:020006001200E6
:08000800F2A402D023EF00F086
:100010009EA202D0EBEF00F01200D08EF28E120002
:100020000300430700001E0F00000200000042070B
:100030000000210F0000010000002E070000000F4B
:06004000000014000000A6
:0A004600DACFE4FFE2CFDAFFE9CFE2
:10005000E4FFEACFE4FFF6CFE4FFF7CFE4FFF5CF0C
:10006000E4FFF3CFE4FFF4CFE4FFFACFE4FF00EEC8
:1000700000F0100EE80403E3EECFE4FFFBD700EE40
:1000800010F0090EE80403E3EECFE4FFFBD7E652DD
:10009000F2940F010C2B000E0D230E230F230F01E2
:1000A000102B000E11230F01122B000E13230F0132
:1000B0000251031107E005D003CFFAFF0F010251EF
:1000C000F96EFADF00CFE6FF01CFE6FF32EC03F076
:1000D000E552E552E55200EE18F0090EE80403E39C
:1000E000E5CFEDFFFBD700EE0FF0100EE80403E3C1
:1000F000E5CFEDFFFBD7E5CFFAFFE5CFF4FFE5CF86
:10010000F3FFE5CFF5FFE5CFF7FFE5CFF6FFE5CF4E
:10011000EAFFE5CFE9FFE5CFDAFF1100DACFE4FF30
:10012000E2CFDAFFE9CFE4FFEACFE4FFF6CFE4FF66
:10013000F7CFE4FFF5CFE4FFF3CFE4FFF4CFE4FF24
:10014000FACFE4FF00EE00F0100EE80403E3EECF78
:10015000E4FFFBD700EE10F0090EE80403E3EECF56
:10016000E4FFFBD7E6529E9004CFE6FF05CFE6FF03
:1001700016EC03F0E552E5520F010651071107E0B6
:1001800005D007CFFAFF0F010651F96EFADFE552ED
:1001900000EE18F0090EE80403E3E5CFEDFFFBD70E
:1001A00000EE0FF0100EE80403E3E5CFEDFFFBD700
:1001B000E5CFFAFFE5CFF4FFE5CFF3FFE5CFF5FF9D
:1001C000E5CFF7FFE5CFF6FFE5CFEAFFE5CFE9FFA3
:1001D000E5CFDAFF1100DACFE4FFE2CFDAFFE9CFB3
:1001E000E4FFEACFE4FFF6CFE4FFF7CFE4FFF5CF7B
:1001F000E4FFF3CFE4FFF4CFE4FFFACFE4FF00EE37
:1002000000F0100EE80403E3EECFE4FFFBD700EEAE
:1002100010F0090EE80403E3EECFE4FFFBD7E6524B
:100220009E9208CFBBFF0F010A510B1107E005D0CA
:100230000BCFFAFF0F010A51F96EFADFE55200EE1B
:1002400018F0090EE80403E3E5CFEDFFFBD700EE5D
:100250000FF0100EE80403E3E5CFEDFFFBD7E5CF89
:10026000FAFFE5CFF4FFE5CFF3FFE5CFF5FFE5CFEC
:10027000F7FFE5CFF6FFE5CFEAFFE5CFE9FFE5CFF2
:10028000DAFF1100D9CFE6FFE1CFD9FF9F0EE66E6E
:100290004EEC03F0E552FD0EDBCF00FFFE0EDBCF90
:1002A00001FFFB0EDBCF02FFFC0EDBCF03FFFD0ED9
:1002B000DBCFE6FFFE0EDBCFE6FF32EC03F0E552CC
:1002C000E552E552E7CFD9FF1200D9CFE6FFE1CFE3
:1002D000D9FF020EE126830EDF6EDE520C0EDD6EBC
:1002E000CC6ACC9E070ECD6EFD0EDBCFE6FFFE0E78
:1002F000DBCFE6FF16EC03F0E552E5529F809D80D0
:10030000FD0EDBCF04FFFE0EDBCF05FFFB0EDBCFC8
:1003100006FFFC0EDBCF07FF020EE15C02E2E16AA2
:10032000E552E16EE552E7CFD9FF1200D9CFE6FFE3
:10033000E1CFD9FF0F0EBA6E9F829D82FE0EDB5079
:10034000BB6EFE0EDB500F01086F096BFC0EDBCF9E
:100350000AFFFD0EDBCF0BFFE552E7CFD9FF1200FE
:10036000D9CFE6FFE1CFD9FF080EE126DE6A900E75
:10037000DE6ED00EDE6E030EDD6EDD52DD52DECFA0
:1003800005F0DECF06F0DECF07F0DDCF08F0DD525E
:10039000DD52055007E1240E061804E1F40E07189B
:1003A00001E108501FE0055008E1480E061805E17C
:1003B000E80E071802E1010E081810E0055008E1E8
:1003C000900E061805E1D00E071802E1030E08187A
:1003D00001E000D0700ED36E9B8C08D0600ED36EFF
:1003E0009B8C04D0700ED36E9B9C00D0D9CFE9FFBC
:1003F000DACFEAFFEECF10F0EECF11F0EECF12F031
:10040000EFCF13F0020ED8901332123211321032A5
:10041000E806F9E1040E10C0DBFF050E11C0DBFF9A
:10042000060E12C0DBFF070E13C0DBFFD950040F0E
:10043000E96EDACFEAFFE80E096E030E0A6E0B6A68
:100440000C6AEECF04F0EECF05F0EECF06F0EFCF62
:1004500007F0F2EC02F007C0EDFF06C0EDFF05C0AB
:10046000EDFF04C0EFFF13681468156A040EDBCFBC
:1004700016F0050EDBCF17F0186A1650135C106EDD
:1004800017501458116E18501558126E10C01EFFD8
:1004900011C01FFFC26A0F01386B0F01396B0F01CA
:1004A0003A6B0F013B6B0F013C6B9690F19E080E6F
:1004B000E15C02E2E16AE552E16EE552E7CFD9FF85
:0204C000120028
:0E04C200200EF66E000EF76E000EF86E0F01A3
:1004D0000900F550196F0900F5501A6F03E119670B
:1004E00001D03DD00900F550146F0900F550156F8B
:1004F0000900F550166F09000900F550E96E090072
:10050000F550EA6E090009000900F550176F09005F
:10051000F550186F09000900F6CF1BFFF7CF1CFF3D
:10052000F8CF1DFF14CFF6FF15CFF7FF16CFF8FF5A
:100530000F01175302E1185307E00900F550EE6E62
:100540001707F8E21807F9D71BCFF6FF1CCFF7FF04
:100550001DCFF8FF0F011907000E1A5BBFD712005D
:10056000D9CFE6FFE1CFD9FF040EE126B0EC01F0D0
:10057000000EE66EE66A1ECFE6FF1FCFE6FF42ECF6
:1005800001F0E552E552E552E5520DEC00F0F40EB3
:10059000DE6E010EDE6EDE6ADD6ADD52DD52D9CF1F
:1005A000E9FFDACFEAFFEE500F010C5DEE500F01CC
:1005B0000D59EE500F010E59EE500F010F5907E380
:1005C0007DEC03F00F010C6B0D6B0E6B0F6BE7D71F
:1005D000040EE15C02E2E16AE552E16EE552E7CF2A
:0405E000D9FF12002D
:0C05E400036A026A016A006A200EE76EDA
:1005F000D890043605360636073600360136023600
:1006000003360950005C0A5001580B5002580C5038
:10061000035809E30950005E0A50015A0B50025A70
:0C0620000C50035A042AE72EE4D7120005
:04062C00D9CFE6FF3D
:10063000DACFE6FFE1CFD9FFE2CFDAFFE652E652AA
:10064000FC0EDBCFDEFFDBCFDDFF010EDB50CF6E1C
:10065000DF50CE6EE552E552E552E5CFDAFFE7CF47
:04066000D9FF1200AC
:0C066400D9CFE6FFDACFE6FFE1CFD9FFE7
:10067000E2CFDAFFE652E652FC0EDBCFDEFFDBCF45
:10068000DDFF010EDB50D76EDF50D66EE552E5522E
:0C069000E552E5CFDAFFE7CFD9FF1200FA
:04069C00D9CFE6FFCD
:1006A000DACFE6FFE1CFD9FFE2CFDAFFFD0EDB5074
:1006B0007F0BD56ED76AD66AF294FD0EDBAE02D000
:1006C000F28A01D0F29AD58EE552E5CFDAFFE7CF74
:0406D000D9FF12003C
:0C06D400380EF36E00EE00F00F0E01D89F
:1006E0001200EA6002D0EE6AFCD7F350E960120013
:0406F000EE6AFCD7DB
:0C06F4000F01216B12000F01210504E131
:100700000F01216B849004D00F01010E216F8480B2
:020710001200D5
:0E07120010EE60F020EE60F0F86A0F9C61ECD3
:0E07200002F003EC00F0B0EC02F0FBD7120088
:02072E000000C9
:1007300000000000000000000000000000000000B9
:020740000000B7
:0107420000B6
:020743000000B4
:020000040030CA
:0100010008F6
:0100020001FC
:0100030024D8
:01000500BD3D
:010006008079
:010008000FE8
:01000900C036
:01000A000FE6
:01000B00E014
:01000C000FE4
:01000D0040B2
:00000001FF
